:1000000000F001202D0500008F050000B70500005D
:10001000C3050000ED050000EF0500000000000032
:10002000000000000000000000000000F1050000DA
:10003000F305000000000000F5050000F7050000D2
:10004000E9050000E9050000E9050000E9050000F8
:10005000E9050000E9050000E9050000E9050000E8
:10006000E9050000E9050000E9050000E9050000D8
:10007000E9050000E9050000E9050000E9050000C8
:1003F000E9050000E9050000E9050000FFFFFFFF37
:10040000FFFFFFFFFFFFFFFFFFFFFFFFFE7FFFFF7D
:100410002DE9F043244B254E254F264CDFF898C09C
:10042000DFF898E0264DDFF89C8027482749284AC6
:1004300005E096F8009083F800905B1C761CB742AC
:10044000F7D1E64509D09CF800302370641C1CF1FC
:10045000010CF6E700232B706D1CA845FAD18A42E7
:1004600004D00B780370491C401CF8E70021194A9E
:10047000194B934210D0002004E052F8204043F87A
:100480002040401C154CB0EB940FF6D31448C9B271
:1004900050F82100036004E01148C9B250F821006F
:1004A0000260BDE8F08300BF000000000000000013
:1004B000000000000004FE1FF8050000F805000021
:1004C000000000000000000000000000000000002C
:1004D00000000000000000000000FE1F00040000FB
:1004E000E40500000B48016851F4700101600A48FE
:1004F000016831F0804101600848094901600068E5
:1005000042F22010074908604FF6FF700649086064
:100510007047000088ED00E034EF00E00420054063
:1005200020C528D9002005400820054072B60021CA
:10053000002200230024002500260027B846B946E3
:10054000BA46BB46BC46054880470548854605482F
:10055000804762B600F008F8FEE70000E5040000FE
:1005600000F0012011040000002070474EF6885171
:10057000CEF20001086840F470000860BFF34F8FAE
:10058000BFF36F8F4FF00070E1EE100A7047FEE787
:1005900000F00DF8002801D0AFF30080AFF3008029
:1005A0000020AFF30080FFF7DFFF00F002F801202A
:1005B000704700F001B8FEE70746384600F002F841
:1005C000FBE7FEE780B5AFF30080024A1100182078
:1005D000ABBEFBE726000200AFF30080FFF7C6FFCB
:1005E000FFF7D6FF08ED00E0FFF7FEBFFEE7FEE7EE
:0805F000FEE7FEE7FEE7FEE76F
:04000005000005D919
:00000001FF
