:1000000000F001202D110000411200008B120000B1
:1000100097120000D1130000D3130000000000006D
:10002000000000000000000000000000D5130000E8
:10003000D713000000000000D9130000DB130000FC
:10004000CD130000CD130000CD130000CD13000030
:10005000CD130000CD130000CD130000CD13000020
:10006000CD130000CD130000CD130000CD13000010
:10007000CD130000CD130000CD130000CD13000000
:1003F000CD130000CD130000CD130000FFFFFFFF61
:10040000FFFFFFFFFFFFFFFFFFFFFFFFFE7FFFFF7D
:100410002DE9F041428881680B6881684C798168D8
:100420000D79002660E0DFF8F0C2390089B2490991
:100430005FF0400E0EFB01C1D1F800E05FF0010853
:1004400017F01F0118FA01F83EEA080E390089B2C8
:1004500049095FF0400808FB01CCCCF800E032E02D
:100460002100C9B2002912D15FF0010C17F01F0161
:100470001CFA01FCBE461FFA8EFE5FEA5E1E5FF0AC
:100480004008DFF8981208FB0E1ECEF800C0DFF817
:1004900088C2390089B249095FF0400E0EFB01C1E4
:1004A000D1F800E05FF0010817F01F0118FA01F819
:1004B00058EA0E0E390089B249095FF0400808FB7E
:1004C00001CCCCF800E0390089B249094FF4805CD6
:1004D000BFB2BF0017F07C070CFB017707F1804724
:1004E00017F592273B60761C3100170089B2BFB226
:1004F000B94220D241683700BFB231F817702900E5
:10050000C9B202298FD12100C9B20129A8D15FF057
:10051000010C17F01F011CFA01FCBE461FFA8EFEEB
:100520005FEA5E1E5FF04008DFF8F41108FB0E1E64
:10053000CEF800C0ABE7BDE8F081F0B401000A8856
:10054000886800688868407988680079002354E0EA
:10055000DFF8C461280080B24009402707FB006033
:1005600007685FF0010C15F01F001CFA00FC37EA69
:100570000C07280080B240095FF0400C0CFB0066BD
:10058000376029E0F6B2002E0DD1012615F01F00CC
:1005900086402F00BFB27F095FF0400CDFF87C017E
:1005A0000CFB07073E60DFF87061280080B240094D
:1005B000402707FB006007685FF0010C15F01F0083
:1005C0001CFA00FC5CEA0707280080B240095FF0D3
:1005D000400C0CFB00663760280080B240094FF4E5
:1005E0008056ADB2AD0015F07C0506FB005505F157
:1005F000804515F592252C605B1C1800140080B214
:10060000A4B2A04236D2C8681C00A4B22401055B83
:10061000C8681C00A4B224012044067AC8681C00E3
:10062000A4B224012044477AC8681C00A4B2240163
:1006300020444468C8689C461FFA8CFC5FEA0C1C86
:100640006044807A0028C7D0FFB2022F7FF480AFC9
:100650003000C0B2012895D1012615F01F00864058
:100660002F00BFB27F095FF0400C2D480CFB07073D
:100670003E6098E7F0BC7047F8B50400217C00228A
:100680002EE0606913009BB210F8333060691500EA
:10069000ADB200EBC50045781E00F6B24FF48057AE
:1006A000204807FB0606356060691500ADB200EB17
:1006B000C50085781E00F6B24FF480571A4807FB34
:1006C0000606356060691500ADB200EBC5004568EF
:1006D000DBB24FF48056154806FB03031D60521C25
:1006E00010000B00DBB280B29BB29842C9D320004D
:1006F000FFF78EFE2000FFF720FF002006E000211C
:100700000B4A03009BB222F81310401C010089B26F
:100710000A29F4DBF1BD000014F00F4008F00F408F
:1007200004F00F40C4900440C8900440C0900440BE
:10073000000000200168654A11604168644A116048
:100740008168644A1160C06863490860704700208E
:100750000020624A106840084000106000201060CD
:1007600001205F49086040F201105E49086010688E
:1007700050F0010010604CF25030401E116811F032
:100780008071B1F1807F01D00028F6D14F48016817
:1007900031F0706151F0007101604D48016831F035
:1007A000706151F0007101604A48016831F0706178
:1007B00051F000710160704710B400210021002148
:1007C000494A1168490849001160002108E003699D
:1007D00003EBC1035B68046954F831402360491C92
:1007E0000329F4D34CF25030401E116811F080718F
:1007F000B1F1807F01D00028F6D110BC704710B451
:1008000000210021354A1168490849001160002182
:1008100008E0436903EBC1035B68446954F8314065
:100820002360491C0329F4D34CF25030401E116858
:1008300011F08071B1F1807F01D00028F6D110BC99
:10084000704730B44CF250310022284B1A685208DD
:1008500052001A60002208E0846904EBC204646854
:10086000856955F832502C60521C032AF4D318685D
:10087000C00708D5491E186810F08070B0F1807F5D
:1008800001D00029F6D130BC704719490A685208D6
:1008900052000A60002108E0C26902EBC1025268FE
:1008A000C36953F831301A60491C0329F4D37047E7
:1008B0005A200F48006810F08070B0F1807F01D19D
:1008C000332000E0CC20C0B2704700001440064046
:1008D000184006401C4006402040064000420640AA
:1008E00008420640044206400041064000430640DC
:1008F00000460640805006400000004784500640F5
:100900000000004790500640000000479450064009
:100910000000004798500640000000409C500640F0
:1009200000000040AC50064000000047B0500640B8
:1009300000000040B450064000000040B85006409F
:1009400000000040C450064000000047C850064068
:1009500000000047D850064000000047DC50064029
:1009600000000040E050064000000040E450064017
:1009700000000040E850064000000040EC500640F7
:1009800000000040F45006400000004700510640BF
:100990000000004024510640000000472851064056
:1009A000000000472C51064000000047305106402F
:1009B00000000047345106400000004750510640F7
:1009C00000000047545106400000004768510640AF
:1009D0000000004084510640000000479851064046
:1009E000000000409C51064000000040A851064015
:1009F00000000040AC51064000000040B0510640ED
:100A000000000040B851064000000040BC510640C4
:100A100000000040C051064000000040C4510640A4
:100A200000000040CC51064000000047D85106406D
:100A300000000047E45106400000004000000100B3
:100A40000200030006000700080009000B000C006C
:100A50000D000E000F001000110012001300140012
:100A6000150016001700180019001A001B001C00C2
:100A70001D001E001F002000210022002300240072
:100A8000250026002700280029002A002B002C0022
:100A90002D002E002F0030003100320033003400D2
:100AA00035003600370038003A003D003E003F0078
:100AB0004000410042004300460047004800490012
:100AC0004A004B004C004D004E004F0050005100BA
:100AD000520053005400550056005700580059006A
:100AE0005A005B005C005D005E005F00600061001A
:100AF00062006300640065006600670068006900CA
:100B00006A006B006C006D006E006F007000710079
:100B10007200730074007500760077007800790029
:100B20007A007B007C007D007E007F0080008100D9
:100B30008200830086008700880089008A008B007D
:100B40008C008D008E008F00910092009300960023
:100B50009700980099009A009B0000002DE9F0434F
:100B6000244B254E254F264CDFF898C0DFF898E03F
:100B7000264DDFF89C8027482749284A05E096F84B
:100B8000009083F800905B1C761CB742F7D1E645D5
:100B900009D09CF800302370641C1CF1010CF6E7AE
:100BA00000232B706D1CA845FAD18A4204D00B7823
:100BB0000370491C401CF8E70021194A194B934265
:100BC00010D0002004E052F8204043F82040401CA0
:100BD000154CB0EB940FF6D31448C9B250F821006D
:100BE000036004E01148C9B250F821000260BDE87A
:100BF000F08300BF000000000000000000000000C3
:100C00000C04FE1FDC130000DC13000018000020A1
:100C10001E00002000000000000000000000000096
:100C2000000000000000FE1F00040000C8130000C8
:100C3000940000000001000000020101010000001A
:100C40009500000000010000000201010100000009
:100C50000400000000070000000200000100000086
:100C60004400000000070000000100000100000037
:100C70004500000000070000000100000100000026
:100C80000A00000000070000000200000100000050
:100C90000500000000070000000100000100000046
:100CA00084000000000500000001000001000000B9
:100CB00085000000000500000002000001000000A7
:100CC00039000000030100000001010101000000E3
:100CD0003B000000000100000002010101000000D3
:100CE0003C000000000100000002010101000000C2
:100CF000900000000001000000010101010000005F
:100D000010B50400A06800F063F8206800F0BEF899
:100D1000606800F0CDF8E06800F0E4F810BD38B588
:100D20000400244D2C602868406800F078F8A06822
:100D3000006810F1010F01D0FFF709FD2868007C61
:100D4000800703D528688068FFF759FD2868007C74
:100D5000400703D528688068FFF773FD2868007C8A
:100D6000C00703D528688068FFF726FD2868007C47
:100D7000C00603D528688068FFF787FDA068006873
:100D800010F1010F02D0A068FFF7D4FCE06800F07A
:100D9000B1F831BD80B507490868002809D0086856
:100DA0008068006810F1010F03D008688068FFF7C1
:100DB000C1FC01BD0404FE1F80B55A20FFF778FD79
:100DC000C0B2332801D1332000E0CC20C0B202BD34
:100DD000214A136821490B4001680B4313600179D4
:100DE00011F03F011E4A1160826843F63F710A40CC
:100DF0001C490A60C2681C490A401C490A60016912
:100E000031F4C0611A4A116042691A490A401A490C
:100E10000A60007E10F00100184908607047017AEE
:100E200011F01F01164A11600B490A686FF30C128A
:100E3000036833F400631A430A600A6832F40062FC
:100E4000036813F400631A430A6041680D480140C7
:100E50000D4801607047000004800440F0DFF0FF9F
:100E600010800440188004407777FFFF0C80044016
:100E70001C8004400040FF07208004406C80044038
:100E8000408004400F00001068800440026841F672
:100E900007710A4004490A60416842F6EF70014058
:100EA00002480160704700000CF007401CF007404A
:100EB00010B40278417852EA0122817852EA014264
:100EC000054B1C6805490C4022431A60C078044950
:100ED000087010BC7047000000D00740CFDF7CE0F6
:100EE00004D00740007810F0A00001490860704766
:100EF00008E0074000212DE0426802EBC102526881
:100F0000436853F831301A6023E0426852F83120C8
:100F1000126812F00042B2F1004F1AD1426802EB9F
:100F2000C102526812F0E062B2F1E06FE4D04268B0
:100F300052F83120126832F08042436853F8313061
:100F40001A60426802EBC1025268436853F83130BC
:100F50001A60491C02689142D7D3704710B51F49E7
:100F60000860002006E01E4A0B68DB6853F830304A
:100F7000D054401C0A6852689042F4D3002008E024
:100F8000184A0B681B69142404FB00F41B59D05445
:100F9000401C0A6892689042F2D308684069FFF7E3
:100FA000AFFE10BD80B50D49096809690D4A125C94
:100FB0001420424301EB0200FFF7B1FE0020C0B253
:100FC00002BD10B50124FFF7E5FE2000C0B210BD40
:100FD00080B5FFF7F1FEC0B202BD00000004FE1FA5
:100FE000150000201400002080B51248FFF7B6FF5E
:100FF0000020FFF7D7FFFFF7EBFF3328FBD1FFF708
:10100000E0FF0D4800F01CF807E00021942000F0FC
:101010002BF80121952000F027F8084800780028D7
:10102000F3D00121942000F01FF80021952000F05A
:101030001BF8F2E728130000401300001D000020F9
:1010400010B50400002C06D10C23002200217C20C6
:1010500000F010F804E02000FFF70EFB01480460E8
:1010600010BD00000804FE1F80B5C9B280B200F0B8
:1010700015F801BD10B4054C2080054801700548E5
:10108000027005480370002010BC70471800002053
:101090001A0000201B0000201C0000200A00D2B211
:1010A000012A0BD1012210F01F018A4080B24009B1
:1010B00040230A4903FB001002600DE0C9B2002979
:1010C0000AD1012210F01F018A4080B2400940235A
:1010D000034903FB001002607047000004F00F405A
:1010E00008F00F400B48016851F4700101600A4894
:1010F000016831F0804101600848094901600068D9
:1011000042F22010074908604FF6FF700649086058
:101110007047000088ED00E034EF00E00420054057
:1011200020C528D9002005400820054072B60021BE
:10113000002200230024002500260027B846B946D7
:10114000BA46BB46BC460548804705488546054823
:10115000804762B6FFF748FFFEE70000E510000099
:1011600000F001205D0B000030B4002513E050F8C2
:10117000042BD30744BFA9F101039A18091F0429BE
:1011800042F8045BFAD213468C0744BF15809B1CBF
:10119000C90748BF1D7050F8041B0029E7D130BCB7
:1011A000704730B40EE00268436802440830DC0740
:1011B00044BFA9F10104E31852F8045B43F8045B4F
:1011C000091FF9D150F8041B0029ECD130BC70473D
:1011D00010B5074979441831064C7C44163404E0B4
:1011E0000A68081D114488470146A142F8D110BD84
:1011F0002C0000004C0000004EF68851CEF2000199
:10120000086840F470000860BFF34F8FBFF36F8F22
:101210004FF00070E1EE100A704700004DFFFFFF35
:1012200018000000000000200000000077FFFFFF12
:101230000C000000600100000004FE1F0000000020
:10124000FEE7000013000106030001020100000395
:1012500000000000C8120000E0120000F8120000B8
:101260001013000000F00DF8002801D0FFF7B0FFC8
:10127000AFF300800020AFF30080FFF7B5FE00F071
:1012800002F80120704700F001B8FEE70746384633
:1012900000F002F8FBE7FEE780B5AFF30080024AFA
:1012A00011001820ABBEFBE7260002000000000082
:1012B000030000000000000000000000000000002B
:1012C000000000000000000008410640340000005B
:1012D00004410640010200000041064001000000F8
:1012E00008420640010000000442064001020000DE
:1012F00000420640010000000843064000000000D4
:1013000004430640010200000043064009000000BB
:10131000084606400000180004460640030300008B
:10132000004606400100000000000000010000002F
:1013300001000000A0130000581300006C1300000F
:101340000D008F003C0A0000B8130000300C0000B4
:101350000000000000000000000000007C130000FE
:1013600044120000A813000017000000B013000092
:10137000C0130000AC120000C41300000000000005
:10138000020000101F000000AFF30080FFF734FFE1
:10139000FFF768FF000000000000000000000000F0
:1013A000000000000000000029000000F408000018
:1013B000000000000000000000010000010000002B
:1013C000000000000000000008ED00E0FFF7FEBF95
:0C13D000FEE7FEE7FEE7FEE7FEE7FEE7B3
:04000005000013895B
:00000001FF
